:10000300EF1F70011E144E6013E4FCFDC3ED945802
:0C001300EC940250EB0DBD00010C80F0DD
:01001F0022BE
:10006800758920759850758DF3758BF3758780D2D7
:020078008E22D6
:080086008F993099FDC2992207
:10003900E4F50953070775BC4000EF42BC0043BC17
:08004900807F017E000200032C
:10005100E4FF43BC0800000000EF7007E5BC54104A
:06006100FF80F653BCE72E
:010067002276
:100020001200687F07120039120051AFBD1200861E
:090030007FE87E0312000380EF5B
:0300000002007A81
:0C007A00787FE4F6D8FD758109020020B3
:00000001FF
