BL51 BANKED LINKER/LOCATER V6.22                                                        08/05/2013  23:49:07  PAGE 1


BL51 BANKED LINKER/LOCATER V6.22, INVOKED BY:
C:\KEIL\C51\BIN\BL51.EXE LED_R.obj TO LED_R RAMSIZE (256)


MEMORY MODEL: SMALL


INPUT MODULES INCLUDED:
  LED_R.obj (LED_R)
  C:\KEIL\C51\LIB\C51S.LIB (?C_STARTUP)


LINK MAP OF MODULE:  LED_R (LED_R)


            TYPE    BASE      LENGTH    RELOCATION   SEGMENT NAME
            -----------------------------------------------------

            * * * * * * *   D A T A   M E M O R Y   * * * * * * *
            REG     0000H     0008H     ABSOLUTE     "REG BANK 0"
            DATA    0008H     0001H     UNIT         ?DT?LED_R
            DATA    0009H     0001H     UNIT         _DATA_GROUP_
            IDATA   000AH     0001H     UNIT         ?STACK

            * * * * * * *   C O D E   M E M O R Y   * * * * * * *
            CODE    0000H     0003H     ABSOLUTE     
            CODE    0003H     001DH     UNIT         ?PR?_DELAY_MS?LED_R
            CODE    0020H     0019H     UNIT         ?PR?MAIN?LED_R
            CODE    0039H     0018H     UNIT         ?PR?_READ_INIT?LED_R
            CODE    0051H     0017H     UNIT         ?PR?ADC_READ?LED_R
            CODE    0068H     0012H     UNIT         ?PR?UART_INIT?LED_R
            CODE    007AH     000CH     UNIT         ?C_C51STARTUP
            CODE    0086H     0008H     UNIT         ?PR?_UART_T?LED_R



OVERLAY MAP OF MODULE:   LED_R (LED_R)


SEGMENT                          DATA_GROUP 
  +--> CALLED SEGMENT          START    LENGTH
----------------------------------------------
?C_C51STARTUP                  -----    -----
  +--> ?PR?MAIN?LED_R

?PR?MAIN?LED_R                 -----    -----
  +--> ?PR?UART_INIT?LED_R
  +--> ?PR?_READ_INIT?LED_R
  +--> ?PR?ADC_READ?LED_R
  +--> ?PR?_UART_T?LED_R
  +--> ?PR?_DELAY_MS?LED_R

?PR?_READ_INIT?LED_R           0009H    0001H
  +--> ?PR?_DELAY_MS?LED_R



SYMBOL TABLE OF MODULE:  LED_R (LED_R)
BL51 BANKED LINKER/LOCATER V6.22                                                      08/05/2013  23:49:07  PAGE 2



  VALUE           TYPE          NAME
  ----------------------------------

  -------         MODULE        LED_R
  C:0000H         SYMBOL        _ICE_DUMMY_
  D:0080H         PUBLIC        P0
  D:0090H         PUBLIC        P1
  D:00A0H         PUBLIC        P2
  D:00B0H         PUBLIC        P3
  D:00C0H         PUBLIC        P4
  D:00C8H         PUBLIC        P5
  D:00A8H         PUBLIC        IE
  D:00BDH         PUBLIC        ADC_RES
  C:0039H         PUBLIC        _Read_init
  D:00B8H         PUBLIC        IP
  B:0098H.1       PUBLIC        TI
  D:00D8H         PUBLIC        CCON
  C:0020H         PUBLIC        main
  C:0051H         PUBLIC        ADC_Read
  D:00BCH         PUBLIC        ADC_CONTR
  D:0099H         PUBLIC        SBUF
  D:0087H         PUBLIC        PCON
  D:0098H         PUBLIC        SCON
  D:0089H         PUBLIC        TMOD
  D:0088H         PUBLIC        TCON
  D:008DH         PUBLIC        TH1
  D:008BH         PUBLIC        TL1
  C:0068H         PUBLIC        UART_init
  B:0088H.6       PUBLIC        TR1
  D:0008H         PUBLIC        CON
  C:0086H         PUBLIC        _UART_T
  C:0003H         PUBLIC        _DELAY_MS
  D:00D0H         PUBLIC        PSW
  -------         PROC          _DELAY_MS
  D:0006H         SYMBOL        a
  -------         DO            
  D:0004H         SYMBOL        i
  -------         ENDDO         
  C:0003H         LINE#         28
  C:0003H         LINE#         30
  C:000CH         LINE#         31
  C:001FH         LINE#         32
  C:001FH         LINE#         33
  -------         ENDPROC       _DELAY_MS
  -------         PROC          UART_INIT
  C:0068H         LINE#         44
  C:0068H         LINE#         48
  C:006BH         LINE#         49
  C:006EH         LINE#         50
  C:0071H         LINE#         51
  C:0074H         LINE#         52
  C:0077H         LINE#         53
  C:0079H         LINE#         54
  -------         ENDPROC       UART_INIT
  -------         PROC          _UART_T
  D:0007H         SYMBOL        UART_data
BL51 BANKED LINKER/LOCATER V6.22                                                      08/05/2013  23:49:07  PAGE 3


  C:0086H         LINE#         65
  C:0086H         LINE#         66
  C:0088H         LINE#         67
  C:008BH         LINE#         68
  C:008DH         LINE#         69
  -------         ENDPROC       _UART_T
  -------         PROC          _READ_INIT
  D:0007H         SYMBOL        CHA
  -------         DO            
  D:0009H         SYMBOL        AD_FIN
  -------         ENDDO         
  C:0039H         LINE#         80
  C:0039H         LINE#         81
  C:003CH         LINE#         82
  C:003FH         LINE#         83
  C:0042H         LINE#         84
  C:0043H         LINE#         85
  C:0046H         LINE#         86
  C:0047H         LINE#         87
  C:004AH         LINE#         88
  -------         ENDPROC       _READ_INIT
  -------         PROC          ADC_READ
  -------         DO            
  D:0007H         SYMBOL        AD_FIN
  -------         ENDDO         
  C:0051H         LINE#         99
  C:0051H         LINE#         100
  C:0053H         LINE#         101
  C:0056H         LINE#         102
  C:0057H         LINE#         103
  C:0058H         LINE#         104
  C:0059H         LINE#         105
  C:005AH         LINE#         106
  C:005DH         LINE#         107
  C:0062H         LINE#         108
  C:0064H         LINE#         109
  C:0067H         LINE#         110
  -------         ENDPROC       ADC_READ
  -------         PROC          MAIN
  C:0020H         LINE#         121
  C:0020H         LINE#         124
  C:0023H         LINE#         125
  C:0028H         LINE#         126
  C:0028H         LINE#         127
  C:002BH         LINE#         128
  C:0030H         LINE#         129
  C:0037H         LINE#         130
  -------         ENDPROC       MAIN
  -------         ENDMOD        LED_R

Program Size: data=11.0 xdata=0 code=142
LINK/LOCATE RUN COMPLETE.  0 WARNING(S),  0 ERROR(S)
