BL51 BANKED LINKER/LOCATER V6.22                                                        12/10/2013  15:37:45  PAGE 1


BL51 BANKED LINKER/LOCATER V6.22, INVOKED BY:
D:\MDK\C51\BIN\BL51.EXE DB1-011.obj TO DB1-011 RAMSIZE (256)


MEMORY MODEL: SMALL


INPUT MODULES INCLUDED:
  DB1-011.obj (DB1_011)
  D:\MDK\C51\LIB\C51S.LIB (?C_STARTUP)
  D:\MDK\C51\LIB\C51S.LIB (?C?CCASE)


LINK MAP OF MODULE:  DB1-011 (DB1_011)


            TYPE    BASE      LENGTH    RELOCATION   SEGMENT NAME
            -----------------------------------------------------

            * * * * * * *   D A T A   M E M O R Y   * * * * * * *
            REG     0000H     0008H     ABSOLUTE     "REG BANK 0"
            DATA    0008H     0002H     UNIT         _DATA_GROUP_
            IDATA   000AH     0001H     UNIT         ?STACK

            * * * * * * *   C O D E   M E M O R Y   * * * * * * *
            CODE    0000H     0003H     ABSOLUTE     
            CODE    0003H     011FH     UNIT         ?PR?MAIN?DB1_011
            CODE    0122H     0026H     UNIT         ?C?LIB_CODE
            CODE    0148H     001EH     UNIT         ?PR?_DELAY_MS?DB1_011
            CODE    0166H     0012H     UNIT         ?PR?UART_INIT?DB1_011
            CODE    0178H     000CH     UNIT         ?C_C51STARTUP



OVERLAY MAP OF MODULE:   DB1-011 (DB1_011)


SEGMENT                          DATA_GROUP 
  +--> CALLED SEGMENT          START    LENGTH
----------------------------------------------
?C_C51STARTUP                  -----    -----
  +--> ?PR?MAIN?DB1_011

?PR?MAIN?DB1_011               0008H    0002H
  +--> ?PR?_DELAY_MS?DB1_011
  +--> ?PR?UART_INIT?DB1_011



SYMBOL TABLE OF MODULE:  DB1-011 (DB1_011)

  VALUE           TYPE          NAME
  ----------------------------------

  -------         MODULE        DB1_011
  C:0000H         SYMBOL        _ICE_DUMMY_
  B:0090H.7       PUBLIC        J5
  B:0090H.7       PUBLIC        J6
BL51 BANKED LINKER/LOCATER V6.22                                                      12/10/2013  15:37:45  PAGE 2


  B:0090H.7       PUBLIC        J7
  D:0090H         PUBLIC        P1
  B:0090H.7       PUBLIC        J8
  B:0090H.7       PUBLIC        J9
  D:00B0H         PUBLIC        P3
  D:00A8H         PUBLIC        IE
  D:00B8H         PUBLIC        IP
  B:0098H.0       PUBLIC        RI
  C:0003H         PUBLIC        main
  B:0090H.7       PUBLIC        J10
  B:0090H.7       PUBLIC        J11
  D:0099H         PUBLIC        SBUF
  D:0087H         PUBLIC        PCON
  D:0098H         PUBLIC        SCON
  D:0089H         PUBLIC        TMOD
  D:0088H         PUBLIC        TCON
  D:008DH         PUBLIC        TH1
  D:008BH         PUBLIC        TL1
  C:0166H         PUBLIC        UART_init
  B:0088H.6       PUBLIC        TR1
  D:00C8H         PUBLIC        T2CON
  C:0148H         PUBLIC        _DELAY_MS
  B:0090H.3       PUBLIC        J1
  D:00D0H         PUBLIC        PSW
  B:00B0H.2       PUBLIC        J2
  B:0090H.4       PUBLIC        J3
  B:0090H.5       PUBLIC        J4
  -------         PROC          _DELAY_MS
  D:0006H         SYMBOL        a
  -------         DO            
  D:0004H         SYMBOL        i
  -------         ENDDO         
  C:0148H         LINE#         30
  C:0148H         LINE#         32
  C:0152H         LINE#         33
  C:0165H         LINE#         34
  C:0165H         LINE#         35
  -------         ENDPROC       _DELAY_MS
  -------         PROC          UART_INIT
  C:0166H         LINE#         37
  C:0166H         LINE#         38
  C:0169H         LINE#         39
  C:016CH         LINE#         40
  C:016FH         LINE#         41
  C:0172H         LINE#         42
  C:0175H         LINE#         43
  C:0177H         LINE#         44
  -------         ENDPROC       UART_INIT
  -------         PROC          MAIN
  -------         DO            
  D:0003H         SYMBOL        UART_data1
  D:0007H         SYMBOL        UART_data2
  D:0008H         SYMBOL        s
  -------         ENDDO         
  C:0003H         LINE#         46
  C:0003H         LINE#         49
  C:000AH         LINE#         50
BL51 BANKED LINKER/LOCATER V6.22                                                      12/10/2013  15:37:45  PAGE 3


  C:000DH         LINE#         51
  C:000DH         LINE#         52
  C:0010H         LINE#         53
  C:0012H         LINE#         54
  C:0014H         LINE#         55
  C:0019H         LINE#         56
  C:0027H         LINE#         57
  C:002FH         LINE#         58
  C:0032H         LINE#         59
  C:0034H         LINE#         60
  C:0036H         LINE#         61
  C:0086H         LINE#         62
  C:008AH         LINE#         63
  C:008EH         LINE#         64
  C:0092H         LINE#         65
  C:0096H         LINE#         66
  C:009BH         LINE#         67
  C:00A0H         LINE#         68
  C:00A5H         LINE#         69
  C:00AAH         LINE#         70
  C:00AFH         LINE#         71
  C:00B4H         LINE#         72
  C:00B9H         LINE#         73
  C:00BEH         LINE#         74
  C:00C3H         LINE#         75
  C:00C8H         LINE#         76
  C:00CDH         LINE#         77
  C:00D2H         LINE#         78
  C:00D7H         LINE#         79
  C:00DCH         LINE#         80
  C:00E1H         LINE#         81
  C:00E6H         LINE#         82
  C:00EBH         LINE#         83
  C:00F0H         LINE#         84
  C:0109H         LINE#         85
  -------         ENDPROC       MAIN
  -------         ENDMOD        DB1_011

  -------         MODULE        ?C?CCASE
  C:0122H         PUBLIC        ?C?CCASE
  -------         ENDMOD        ?C?CCASE

Program Size: data=11.0 xdata=0 code=388
LINK/LOCATE RUN COMPLETE.  0 WARNING(S),  0 ERROR(S)
