:10014800EF1FAA0670011E4A6013E4FCFDC3ED947C
:0D01580058EC940250EA0DBD00010C80F03F
:010165002277
:10016600758920759850758DF3758BF3758780D2D8
:020176008E22D7
:100003007FE87E031201481201663098FDAB99C266
:1000130098E4F508F509C3E50994D0E50894075079
:10002300E9EB70E60509E509700205083098E7AFCA
:1000330099C298EF120122008601008E02009603F6
:1000430000A00400AA0500B40600BE0700C808000B
:10005300D20900DC0A00E60B00F00C008A81009252
:1000630082009B8300A58400AF8500B98600C38707
:1000730000CD8800D78900E18A00EB8B01098C0051
:10008300000019C293808FD293808BC2B28087D233
:10009300B28083C294020019D294020019C295025D
:1000A3000019D295020019C297020019D2970200D3
:1000B30019C297020019D297020019C297020019B8
:1000C300D297020019C297020019D297020019C2EF
:1000D30097020019D297020019C297020019D2970A
:1000E300020019C297020019D297020019C293C2E3
:1000F300B2C294C295C297C297C297C297C297C21F
:1001030097C297020019D293D2B2D294D295D297C2
:0F011300D297D297D297D297D297D2970200194C
:0300000002017882
:0C017800787FE4F6D8FD758109020003D1
:10012200D083D082F8E4937012740193700DA3A36C
:1001320093F8740193F5828883E473740293686080
:06014200EFA3A3A380DF80
:00000001FF
