:10002900EF1FAA0670011E4A6013E4FCFDC3ED949C
:0D00390058EC940250EA0DBD00010C80F05F
:010046002297
:10007600758920759850758DF3758BF3758780D2C9
:020086008E22C8
:080094008F993099FDC29922F9
:10004700E4F50853070775BC4000EF42BC0043BC0A
:08005700807F017E00020029F8
:10005F00E4FF43BC0800000000EF7007E5BC54103C
:06006F00FF80F653BCE720
:010075002268
:10000300120076E4FF120047759101E4F5921200A5
:100013005FE5BD25E025E025BEFF1200947F647EE9
:060023000012002980E834
:0300000002008873
:0C008800787FE4F6D8FD758108020003C3
:00000001FF
