BL51 BANKED LINKER/LOCATER V6.22                                                        12/08/2013  09:58:13  PAGE 1


BL51 BANKED LINKER/LOCATER V6.22, INVOKED BY:
C:\KEIL\C51\BIN\BL51.EXE code.obj TO D RAMSIZE (256)


MEMORY MODEL: SMALL


INPUT MODULES INCLUDED:
  code.obj (CODE)
  C:\KEIL\C51\LIB\C51S.LIB (?C_STARTUP)


LINK MAP OF MODULE:  D (CODE)


            TYPE    BASE      LENGTH    RELOCATION   SEGMENT NAME
            -----------------------------------------------------

            * * * * * * *   D A T A   M E M O R Y   * * * * * * *
            REG     0000H     0008H     ABSOLUTE     "REG BANK 0"
            DATA    0008H     0001H     UNIT         _DATA_GROUP_
            IDATA   0009H     0001H     UNIT         ?STACK

            * * * * * * *   C O D E   M E M O R Y   * * * * * * *
            CODE    0000H     0003H     ABSOLUTE     
            CODE    0003H     0026H     UNIT         ?PR?MAIN?CODE
            CODE    0029H     001EH     UNIT         ?PR?_DELAY_MS?CODE
            CODE    0047H     0018H     UNIT         ?PR?_READ_INIT?CODE
            CODE    005FH     0017H     UNIT         ?PR?ADC_READ?CODE
            CODE    0076H     0012H     UNIT         ?PR?UART_INIT?CODE
            CODE    0088H     000CH     UNIT         ?C_C51STARTUP
            CODE    0094H     0008H     UNIT         ?PR?_UART_T?CODE



OVERLAY MAP OF MODULE:   D (CODE)


SEGMENT                          DATA_GROUP 
  +--> CALLED SEGMENT          START    LENGTH
----------------------------------------------
?C_C51STARTUP                  -----    -----
  +--> ?PR?MAIN?CODE

?PR?MAIN?CODE                  -----    -----
  +--> ?PR?UART_INIT?CODE
  +--> ?PR?_READ_INIT?CODE
  +--> ?PR?ADC_READ?CODE
  +--> ?PR?_UART_T?CODE
  +--> ?PR?_DELAY_MS?CODE

?PR?_READ_INIT?CODE            0008H    0001H
  +--> ?PR?_DELAY_MS?CODE



SYMBOL TABLE OF MODULE:  D (CODE)

BL51 BANKED LINKER/LOCATER V6.22                                                      12/08/2013  09:58:13  PAGE 2


  VALUE           TYPE          NAME
  ----------------------------------

  -------         MODULE        CODE
  C:0000H         SYMBOL        _ICE_DUMMY_
  D:0092H         PUBLIC        P1M0
  D:0091H         PUBLIC        P1M1
  D:00A8H         PUBLIC        IE
  D:00BDH         PUBLIC        ADC_RES
  C:0047H         PUBLIC        _Read_init
  D:00B8H         PUBLIC        IP
  B:0098H.1       PUBLIC        TI
  D:00D8H         PUBLIC        CCON
  C:0003H         PUBLIC        main
  C:005FH         PUBLIC        ADC_Read
  D:00BCH         PUBLIC        ADC_CONTR
  D:0099H         PUBLIC        SBUF
  D:0087H         PUBLIC        PCON
  D:0098H         PUBLIC        SCON
  D:0089H         PUBLIC        TMOD
  D:0088H         PUBLIC        TCON
  D:008DH         PUBLIC        TH1
  D:008BH         PUBLIC        TL1
  C:0076H         PUBLIC        UART_init
  B:0088H.6       PUBLIC        TR1
  D:00BEH         PUBLIC        ADC_RESL
  C:0094H         PUBLIC        _UART_T
  C:0029H         PUBLIC        _DELAY_MS
  D:00D0H         PUBLIC        PSW
  -------         PROC          _DELAY_MS
  D:0006H         SYMBOL        a
  -------         DO            
  D:0004H         SYMBOL        i
  -------         ENDDO         
  C:0029H         LINE#         26
  C:0029H         LINE#         28
  C:0033H         LINE#         29
  C:0046H         LINE#         30
  C:0046H         LINE#         31
  -------         ENDPROC       _DELAY_MS
  -------         PROC          UART_INIT
  C:0076H         LINE#         42
  C:0076H         LINE#         46
  C:0079H         LINE#         47
  C:007CH         LINE#         48
  C:007FH         LINE#         49
  C:0082H         LINE#         50
  C:0085H         LINE#         51
  C:0087H         LINE#         52
  -------         ENDPROC       UART_INIT
  -------         PROC          _UART_T
  D:0007H         SYMBOL        UART_data
  C:0094H         LINE#         63
  C:0094H         LINE#         64
  C:0096H         LINE#         65
  C:0099H         LINE#         66
  C:009BH         LINE#         67
BL51 BANKED LINKER/LOCATER V6.22                                                      12/08/2013  09:58:13  PAGE 3


  -------         ENDPROC       _UART_T
  -------         PROC          _READ_INIT
  D:0007H         SYMBOL        CHA
  -------         DO            
  D:0008H         SYMBOL        AD_FIN
  -------         ENDDO         
  C:0047H         LINE#         77
  C:0047H         LINE#         78
  C:004AH         LINE#         79
  C:004DH         LINE#         80
  C:0050H         LINE#         81
  C:0051H         LINE#         82
  C:0054H         LINE#         83
  C:0055H         LINE#         84
  C:0058H         LINE#         85
  -------         ENDPROC       _READ_INIT
  -------         PROC          ADC_READ
  -------         DO            
  D:0007H         SYMBOL        AD_FIN
  -------         ENDDO         
  C:005FH         LINE#         96
  C:005FH         LINE#         97
  C:0061H         LINE#         98
  C:0064H         LINE#         99
  C:0065H         LINE#         100
  C:0066H         LINE#         101
  C:0067H         LINE#         102
  C:0068H         LINE#         103
  C:006BH         LINE#         104
  C:0070H         LINE#         105
  C:0072H         LINE#         106
  C:0075H         LINE#         107
  -------         ENDPROC       ADC_READ
  -------         PROC          MAIN
  C:0003H         LINE#         117
  C:0003H         LINE#         118
  C:0006H         LINE#         119
  C:000BH         LINE#         120
  C:000EH         LINE#         121
  C:0011H         LINE#         122
  C:0011H         LINE#         123
  C:0014H         LINE#         124
  C:0020H         LINE#         125
  C:0027H         LINE#         126
  -------         ENDPROC       MAIN
  -------         ENDMOD        CODE

Program Size: data=10.0 xdata=0 code=156
LINK/LOCATE RUN COMPLETE.  0 WARNING(S),  0 ERROR(S)
