BL51 BANKED LINKER/LOCATER V6.22                                                        08/04/2013  21:20:18  PAGE 1


BL51 BANKED LINKER/LOCATER V6.22, INVOKED BY:
C:\KEIL\C51\BIN\BL51.EXE main.obj TO Reply RAMSIZE (256)


MEMORY MODEL: SMALL


INPUT MODULES INCLUDED:
  main.obj (MAIN)
  C:\KEIL\C51\LIB\C51S.LIB (?C_STARTUP)


LINK MAP OF MODULE:  Reply (MAIN)


            TYPE    BASE      LENGTH    RELOCATION   SEGMENT NAME
            -----------------------------------------------------

            * * * * * * *   D A T A   M E M O R Y   * * * * * * *
            REG     0000H     0008H     ABSOLUTE     "REG BANK 0"
            REG     0008H     0008H     ABSOLUTE     "REG BANK 1"
            IDATA   0010H     0001H     UNIT         ?STACK

            * * * * * * *   C O D E   M E M O R Y   * * * * * * *
            CODE    0000H     0003H     ABSOLUTE     
            CODE    0003H     0019H     UNIT         ?PR?UART_R?MAIN
            CODE    001CH     0005H     UNIT         ?PR?MAIN?MAIN
                    0021H     0002H                  *** GAP ***
            CODE    0023H     0003H     ABSOLUTE     
            CODE    0026H     0016H     UNIT         ?PR?UART_INIT?MAIN
            CODE    003CH     000CH     UNIT         ?C_C51STARTUP



OVERLAY MAP OF MODULE:   Reply (MAIN)


SEGMENT
  +--> CALLED SEGMENT
---------------------
?C_C51STARTUP
  +--> ?PR?MAIN?MAIN

?PR?MAIN?MAIN
  +--> ?PR?UART_INIT?MAIN



SYMBOL TABLE OF MODULE:  Reply (MAIN)

  VALUE           TYPE          NAME
  ----------------------------------

  -------         MODULE        MAIN
  C:0000H         SYMBOL        _ICE_DUMMY_
  D:0090H         PUBLIC        P1
  D:00B0H         PUBLIC        P3
  B:00A8H.7       PUBLIC        EA
BL51 BANKED LINKER/LOCATER V6.22                                                      08/04/2013  21:20:18  PAGE 2


  D:00A8H         PUBLIC        IE
  B:00A8H.4       PUBLIC        ES
  D:00B8H         PUBLIC        IP
  B:0098H.0       PUBLIC        RI
  B:0098H.1       PUBLIC        TI
  C:001CH         PUBLIC        main
  D:0099H         PUBLIC        SBUF
  D:0087H         PUBLIC        PCON
  D:0098H         PUBLIC        SCON
  D:0089H         PUBLIC        TMOD
  D:0088H         PUBLIC        TCON
  D:008DH         PUBLIC        TH1
  D:008BH         PUBLIC        TL1
  C:0026H         PUBLIC        UART_init
  B:0088H.6       PUBLIC        TR1
  D:00C8H         PUBLIC        T2CON
  C:0003H         PUBLIC        UART_R
  D:00D0H         PUBLIC        PSW
  -------         PROC          UART_INIT
  C:0026H         LINE#         11
  C:0026H         LINE#         12
  C:0028H         LINE#         13
  C:002AH         LINE#         15
  C:002DH         LINE#         16
  C:0030H         LINE#         17
  C:0033H         LINE#         18
  C:0036H         LINE#         19
  C:0039H         LINE#         20
  C:003BH         LINE#         21
  -------         ENDPROC       UART_INIT
  -------         PROC          UART_R
  -------         DO            
  D:000FH         SYMBOL        UART_data
  -------         ENDDO         
  C:0003H         LINE#         31
  C:000AH         LINE#         33
  C:000CH         LINE#         34
  C:000EH         LINE#         35
  C:0012H         LINE#         36
  C:0015H         LINE#         37
  C:0017H         LINE#         38
  -------         ENDPROC       UART_R
  -------         PROC          MAIN
  C:001CH         LINE#         40
  C:001CH         LINE#         41
  C:001CH         LINE#         42
  C:001FH         LINE#         43
  -------         ENDPROC       MAIN
  -------         ENDMOD        MAIN

Program Size: data=17.0 xdata=0 code=70
LINK/LOCATE RUN COMPLETE.  0 WARNING(S),  0 ERROR(S)
